:100000000C9434000C9412010C9451000C94510087
:100010000C9451000C9451000C9451000C9451001C
:100020000C9451000C9451000C9451000C9451000C
:100030000C9451000C9451000C9451000C945100FC
:100040000C9451000C9451000C9451000C945100EC
:100050000C9451000C9451000C9451000C945100DC
:100060000C9451000C94510011241FBECFEFD8E026
:10007000DEBFCDBF11E0A0E0B1E0E6E1F3E002C0F9
:1000800005900D92A833B107D9F721E0A8E3B1E0BC
:1000900001C01D92A933B207E1F70E944D010C94F3
:1000A00089010C94000098B1937C98B980FD429A24
:1000B00081FD439A82FD449A83FD459A419A85E0E9
:1000C0008A95F1F7000041988FE891E00197F1F7E8
:1000D00000C000000895CF93C82F409882958F707C
:1000E0000E9453008C2F8F700E94530087EC90E089
:1000F0000197F1F700C00000CF910895CF93C82F6A
:10010000409A82958F700E9453008C2F8F700E94AE
:10011000530087EC90E00197F1F700C00000CF9109
:10012000089581E00E946B008FE39FE10197F1F752
:1001300000C000000895811104C06058862F0C94FF
:100140006B006054FBCFCF93DF93EC018991811159
:1001500003C0DF91CF9108950E947E00F7CF87B151
:100160008F6387B92FEF83EF91E02150804090405B
:10017000E1F700C0000083E00E9453008FE19EE49D
:100180000197F1F700C0000083E00E94530087E56B
:1001900092E00197F1F700C0000083E00E94530055
:1001A00087E592E00197F1F700C0000082E00E942D
:1001B000530088E20E946B008CE00E946B0086E096
:1001C0000E946B000C94910084B1836084B985B166
:1001D0008C7F85B952985A9A08959C012A3031052E
:1001E00020F42150310950F408958FE39CE90197E0
:1001F000F1F700C000002A503109F0CF8FE99FE0ED
:100200000197F1F700C00000ECCF289A0E94ED00A2
:1002100028980895E9E6F0E080818C7F8083E09A59
:10022000E89A08958F9381E0809338018F91189513
:100230000E94910080E80E946B0080E091E00E94A3
:10024000A30080EC0E946B008CE091E00E94A30070
:10025000299883B7817F846083BFF89483B78160D6
:1002600083BF7894889583B78E7F83BF0E94910067
:1002700080E80E946B0089E191E00E94A30086E97A
:1002800090E00E9405012FEF89E698E1215080401F
:100290009040E1F700C0000008950E94E4000E9431
:1002A0000A010E94AF00789480E80E946B0080E20F
:1002B00091E00E94A3002FEF3FE087E22150304001
:1002C0008040E1F700C000000E94910080E80E9499
:1002D0006B008DE291E00E94A30085E0299A9FEFD8
:1002E00023EC39E0915020403040E1F700C000009D
:1002F00029989FEF23EC39E0915020403040E1F7FE
:1003000000C000008A9551F70E9418011092380130
:06031000DBCFF894FFCFE3
:10031600534C454550494E472E2E2E00507265735C
:100326007320627574746F6E004157414B4521000E
:1003360053595354454D2053544152540052554E2F
:080346004E494E472E2E2E00F9
:00000001FF
